:100000000C9461000C947E000C947E000C947E0095
:100010000C947E000C947E000C947E000C947E0068
:100020000C947E000C947E000C947E000C947E0058
:100030000C947E000C947E000C947E000C947E0048
:100040000C947E000C940E010C947E000C94E30042
:100050000C947E000C947E000C947E000C947E0028
:100060000C947E000C947E00000000002400270009
:100070002A0000000000250028002B0000000000DE
:1000800023002600290004040404040404040202DA
:100090000202020203030303030301020408102007
:1000A0004080010204081020010204081020000012
:1000B0000007000201000003040600000000000029
:1000C000000011241FBECFEFD8E0DEBFCDBF11E08E
:1000D000A0E0B1E0E6E1F3E002C005900D92A430AB
:1000E000B107D9F712E0A4E0B1E001C01D92AC3332
:1000F000B107E1F70E9480000C9489010C94000084
:10010000CF93DF930E94B0000E943301789480E186
:10011000E8E0F1E0DF011D928A95E9F781E0809344
:10012000080180930901C8EDD1E0E0910001F09150
:1001300001018091020190910301E817F90779F01C
:100140008191F0930101E0930001EC53F24021F41E
:10015000D0930101C09300010E94C600E6CFFFCFFB
:10016000E0ECF0E08081826080831092C50080E145
:100170008093C400E1ECF0E0808180618083808125
:10018000886080838081806880830895282FE09133
:1001900006019E2F9F5F903431F490E004C080915F
:1001A0000A0184FD0FC0809107019817C1F3F0E0A8
:1001B000E856FE4F2083909306018091C100806233
:1001C0008093C10008951F920F920FB60F921124D1
:1001D0008F939F93EF93FF9380910701E82FF0E0B7
:1001E000E856FE4F90819093C600982F9F5F903401
:1001F00009F490E09093070180910601981729F483
:100200008091C1008F7D8093C100FF91EF919F91FC
:100210008F910F900FBE0F901F9018951F920F9205
:100220000FB60F9211248F939F93EF93FF938EB588
:10023000E0910201F09103018193F0930301E093B7
:100240000201EC53F24031F488ED91E09093030108
:1002500080930201FF91EF919F918F910F900FBEBC
:100260000F901F9018958AE060E00E944A018BE091
:1002700060E00E944A018DE060E00E944A018CE04B
:1002800061E00E944A018CB580648CBD8CB58068A9
:100290008CBD0895CF93DF93482F50E0CA01865656
:1002A0009F4FFC0134914A575F4FFA018491882394
:1002B00069F190E0880F991FFC01E859FF4FA59163
:1002C000B491FC01EE58FF4FC591D491662351F4CF
:1002D0002FB7F8948C91932F909589238C938881D4
:1002E00089230BC0623061F42FB7F8948C91932F5F
:1002F000909589238C938881832B88832FBF06C098
:100300009FB7F8948C91832B8C939FBFDF91CF91F3
:060310000895F894FFCFF0
:04031600D801D80131
:00000001FF
